:020000040800F2
:10000000B0040020010100086F0E0008330A000848
:100010006D0E000899010008B513000800000000EB
:10002000000000000000000000000000730E000847
:10003000C101000800000000710E0008750E0008E4
:100040001B0100081B0100081B0100081B01000820
:100050001B0100081B0100081B0100081B01000810
:100060001B0100081B0100081B0100081B01000800
:100070001B0100081B0100081B0100081B010008F0
:100080001B0100081B0100081B0100081B010008E0
:100090001B0100081B0100081B0100081B010008D0
:1000A0001B0100081B0100081B0100081B010008C0
:1000B0001B010008610F00081B0100081B0100085C
:1000C0001B0100081B0100081B0100081B010008A0
:1000D0001B0100081B0100081B0100081B01000890
:1000E000C50100081B0100081B010008DFF80CD047
:1000F00000F040F800480047C9150008B00400208F
:100100000648804706480047FEE7FEE7FEE7FEE7B1
:10011000FEE7FEE7FEE7FEE7FEE7FEE7190F000851
:10012000ED000008D2B201E000F8012B491EFBD21D
:1001300070470022F6E710B513460A4604461946F2
:10014000FFF7F0FF204610BD30B50B4601460020FA
:100150002022012409E021FA02F59D4205D303FA89
:1001600002F5491B04FA02F52844151EA2F101020A
:10017000F1DC30BD064C074D06E0E06840F00103BD
:1001800094E8070098471034AC42F6D3FFF7B2FF6B
:100190005C1700087C170008FEE7000006480168AD
:1001A00041F080710160054800214160016841F023
:1001B0000101016070470000FCED00E0001000E06C
:1001C000704700002DE9F0414FF48056304600F0B2
:1001D0008DFC1C4F1C4C1D4D28B13E60287810B979
:1001E0002078401C20704FF40058404600F07EFC00
:1001F000002650B1C7F80080287830B92078401E1A
:1002000010F0FF00207000D126704FF4804420468B
:1002100000F06CFC002812D03C602978200429B939
:10022000016A41F48071016201212970084909685D
:10023000890404D42E70016A21F480710162BDE842
:10024000F0810000140401400A0000200800002092
:10025000080C01402DE9F84FDFF8B891002409F1AE
:10026000040A0AF1040B23460F270BF1040EC9E020
:100270000125A5402A40AA427DD1674ED1F804C08D
:10028000ACEB0608B44532D014DCBCF1030F3AD015
:1002900009DCBCF1000F2AD0BCF1010F1CD0BCF16D
:1002A000020F31D11DE0BCF1110F17D0BCF1120FBC
:1002B0002AD119E0B8F5881F19D006DCB8F5803FBF
:1002C00015D0B8F5801F1FD111E0B8F5001F0ED072
:1002D000B8F5041F18D10AE0CB6815E0CB681B1DE8
:1002E00012E0CB6808330FE0CB680C330CE08B686E
:1002F0002BB1012B4FF0080303D0456104E0042328
:1003000002E0056100E00023FF2A01D8064601E073
:1003100000F104064FEA840501D9A5F12005D6F8BD
:10032000008007FA05FC28EA0C0803FA05F548EAFC
:100330000508C6F800804D68ED0062D5374DAE69FE
:1003400046F00106AE61AD6924F0030605F0010533
:100350000095334D06EB050CDCF80850A607360F68
:1003600007FA06F825EA0805DFF8B880404503D10A
:100370004FF0000817E044E0DFF8AC80404502D1C0
:100380004FF001080FE0DFF8A480404502D14FF0A4
:10039000020808E0DFF89880404502D14FF00308DA
:1003A00001E04FF0040808FA06F848EA0508CCF81E
:1003B00008804D68D9F80060ED034D4601D516431D
:1003C00000E096432E604D68DAF80060AD035546B4
:1003D00001D5164300E096432E604D68DBF80060BF
:1003E000ED025D4601D5164300E096432E604D6850
:1003F000DEF80060AD02754601D5164300E0964375
:100400002E60641C0D682A46E5407FF431AFBDE8DC
:10041000F88F00000004014000001110001002409D
:100420000000014000080140000C014000100140A4
:1004300000140140024881680278114481607047CD
:100440001C000020074810B5016841F01001016050
:10045000032000F075F8002000F006F800F024F802
:10046000002010BD0020024070B50D4D04464FF431
:100470007A712878B1FBF0F00A490968B1FBF0F015
:1004800000F070F848B9102C07D200222146501E07
:1004900000F036F800206C6070BD012070BD0000D7
:1004A0001C000020280000200C4808B5816941F09C
:1004B00001018161816901F001010091C16941F08F
:1004C0008051C161C06900F08050009004484168CB
:1004D00021F0E06141F00071416008BD0010024070
:1004E00000000140002809DB00F01F0201219140BB
:1004F0004009800000F1E020C0F8001170470000C2
:10050000F0B40E4B1B680C46C3F30223C3F107057E
:10051000042D00D90425191D072901D2002300E06C
:10052000DB1E012606FA05F1491E214099409E4036
:10053000761E16403143F0BC00F062BF0CED00E0C7
:10054000064900F0070208684FF6FF03184040EA2A
:100550000220034A10430860704700000CED00E0E1
:100560000000FA0510B5401EB0F1807F01D30120D4
:1005700010BD4FF0E02460610F21601700F040FFD4
:100580000020A06107202061002010BD7047704747
:1005900070B590F83C20012A19D0012400F83C4F96
:1005A0000222427050F83C3C5A689D6822F0700666
:1005B0000A684968324325F0800529435A6050F89B
:1005C0003C2C9160447000210170084670BD0220EF
:1005D00070BD704770B50446006801694FF00005B2
:1005E000C943890715D4C168C943890711D4E91ED5
:1005F000016101202077206880698007204602D0B1
:10060000FFF7E7FF04E000F00AF9204600F00EFAD9
:10061000257720680169C943490717D4C168C943D0
:10062000490713D46FF0040101610220207720688C
:10063000806910F4407F204602D0FFF7CAFF04E033
:1006400000F0EDF8204600F0F1F925772068016907
:10065000C943090716D4C168C943090712D46FF00A
:1006600008010161042020772068C06980072046C6
:1006700002D0FFF7AEFF04E000F0D1F8204600F012
:10068000D5F9257720680169C943C90617D4C1681F
:10069000C943C90613D46FF0100101610820207707
:1006A0002068C06910F4407F204602D0FFF791FF18
:1006B00004E000F0B4F8204600F0B8F9257720688F
:1006C0000169C943C90708D1C168C943C90704D131
:1006D000891E0161204600F0AAF920680169C9431A
:1006E000090609D4C168C943090605D46FF0800121
:1006F00001612046FFF74AFF20680169C9434906A6
:1007000009D4C168C943490605D46FF040010161AD
:10071000204600F08DF920680169C94389060BD491
:10072000C168C943890607D46FF0200101612046E2
:10073000BDE87040FFF72BBF70BD000000B585B06D
:100740000021009101910291039102681948022150
:10075000B2F1804F1DD0184B9A4218D1826942F0F5
:10076000080282618069039100F008000490102063
:10077000CDE9000169461148FFF76CFD104841685A
:1007800021F4406141F0E06141F40061416005B055
:1007900000BD826942F0040282618069039100F029
:1007A000040004900420CDE9000169460548FFF7E4
:1007B00051FDECE70010024000040040000C014035
:1007C000000001400008014070B5044690F83C006C
:1007D00001280DD0012584F83C50022084F83D000A
:1007E00042B1042A0AD0082A0CD00C2A11D10DE0FB
:1007F000022070BD206800F02DFC0AE0206800F0A7
:1008000051FC06E0206800F079FC02E0206800F06E
:10081000A1FC84F83D50002084F83C0070BD704776
:1008200010B5040003D094F83D0010B107E001209A
:1008300010BD002084F83C00204600F00DF8022096
:1008400084F83D00211D206800F0C0FB012084F8E1
:100850003D00002010BD000008B500680B4988422B
:1008600012D10B48C16941F00201C161C069002287
:1008700000F00200009011461D20FFF741FEBDE888
:1008800008401D20FFF72EBE08BD000000040040F8
:100890000010024010B50268044631B1042908D0A6
:1008A000082922D00C2908D123E0D06840F00200AA
:1008B00002E0D06840F00400D0600122206800F01F
:1008C000BBFB0E492068884203D1416C41F40041D2
:1008D00041642068816801F00701062903D001689E
:1008E00041F001010160002010BDD06840F0080017
:1008F000E2E7D06840F01000DEE70000002C014085
:1009000070B5044690F83C000D4601280DD0012634
:1009100084F83C60022084F83D0042B1042A18D0DB
:10092000082A2AD00C2A4DD139E0022070BD206857
:1009300000F090FB2068816941F008018161206826
:10094000816921F004018161206881692A6911436C
:1009500011E0206800F0A6FB2068816941F4006185
:1009600081612068816921F48061816120688169E9
:100970002A6941EA0221816124E0206800F0BEFB7F
:100980002068C16941F00801C1612068C16921F096
:100990000401C1612068C1692A69114311E020681E
:1009A00000F0D8FB2068C16941F40061C161206892
:1009B000C16921F48061C1612068C1692A6941EA85
:1009C0000221C16184F83D60002084F83C0070BDC4
:1009D00010B5040003D094F83D0010B107E00120E9
:1009E00010BD002084F83C00204600F00DF80220E5
:1009F00084F83D00211D206800F0E8FA012084F809
:100A00003D00002010BD000008B50068B0F1804F27
:100A100008D10548C16941F00101C161C06900F018
:100A20000100009008BD00000010024070477047B0
:100A30007047FEE7044908B58A6902438A618969FB
:100A40000140009108BD00000010024030B5264A68
:100A5000002405790168131F85B371B345798DB101
:100A6000012D17D0022D18D0012483792BB31E49F4
:100A700008310A1F012B18D0022B20D0032B22D0C3
:100A8000012428E015688D43156001681A680A433F
:100A90001A60EAE71D688D4301E01D680D431D6083
:100AA000016813680B431360DFE703680D689D431B
:100AB0000D6000681168014311600CE00DE00368EF
:100AC00015689D4302E0036815681D4315600068C2
:100AD0000A6802430A60204630BD1D688D431D60D0
:100AE000006811688143E7E704040140034909688D
:100AF000884301D000207047012070471404014052
:100B00000A06930D064A1A44936823EA1143090C16
:100B100091FAA1F1B1FA81F18840034393607047E3
:100B200000000140F0B50A68C2F30F2595FAA5F25E
:100B3000B2FA82F369E001229A402A4264D0082B7B
:100B400003D240F201129A4006E0A3F108024FF0EE
:100B50000114944044F0806292FAA2F700EB126410
:100B6000B7FA87F74FEA870C0F27266807FA0CF7C2
:100B7000BE4392FAA2F7D1F804E0B7FA87F7BF00B4
:100B80000EFA07FE46EA0E0626600E69C7684FEAAF
:100B9000122C9CFAACFCBCFA8CFC27EA122706FA51
:100BA0000CF63743C7604E68012E01D0092E2BD1B9
:100BB00092FAA2F7B7FA87F74FEA870C032707FAEA
:100BC0000CF72668D1F808E0BE4392FAA2F7B7FA0C
:100BD00087F7BF000EFA07FE92FAA2FC46EA0E065D
:100BE000BCFA8CFC4FEA8C0E4FF0040C26600CFA19
:100BF0000EFC92FAA2F2B2FA82F2CF68920026EAD2
:100C00000C0697403E4326605B1C35FA03F292D1F6
:100C10000020F0BD30B591FAA1F400EB1160B4FAF8
:100C200084F4A5000F24AC4091FAA1F10368B1FA55
:100C300081F18900A3438A401343036030BDC36838
:100C400023EA1123090A91FAA1F1B1FA81F18A404C
:100C50001343C360704700000149086070470000FB
:100C6000280000202DE9F04188B0002400941421D0
:100C700002A80194FFF75DFA0420FFF7DBFE0820CD
:100C8000FFF7D8FE414840494FF43E724261404F61
:100C9000032240F203387A6102AA01250226059454
:100CA00082E8620002A9FFF73DFFCDE90464CDE9C7
:100CB000028502A93846FFF735FF36490120FFF7C4
:100CC0001FFF35490120FFF71BFF34490120FFF7C3
:100CD00017FF28038DF8045000908DF805408DF81B
:100CE00006606846FFF7B2FE68038DF80450009076
:100CF0008DF805408DF806606846FFF7A7FEA8034B
:100D00008DF8045000908DF805408DF80660684617
:100D1000FFF79CFE224D012229463846FFF78FFF40
:100D2000204E012231463846FFF789FFDFF87880F0
:100D3000012241463846FFF782FF082229463846FD
:100D4000FFF768FF082231463846FFF763FF0822A5
:100D500041463846FFF75EFF14480068C0F30220A2
:100D6000011D072901D2002000E0C01E04FA00F195
:100D7000282000F035FB0E494FF48070C1F80001C7
:100D800008B0BDE8F0810000FAF802040008014054
:100D9000000C014003000F000300F0000300000FEF
:100DA0001000100420002004400040040CED00E07E
:100DB00004E000E010B58AB0002407941C216846C6
:100DC0000894FFF7B6F911484FF08041C0E90014CC
:100DD00040F2DB51C0E90241802104618161FFF7EB
:100DE000F7FD079407A909480894FFF7D1FB602095
:100DF000CDE9000402940822694604480494FFF7F0
:100E00007FFD0248FFF79AFC0AB010BD2C000020BD
:100E100010B58AB0002407941C2168460894FFF797
:100E200088F911480F49C0E900144FF6FE71C0E976
:100E30000241802104618161FFF7F2FC079407A958
:100E400009480894FFF7A4FB00940194029400223F
:100E5000694605480494FFF7B7FC0348FFF76EFCAA
:100E60000AB010BD000400406C000020FEE770478F
:100E700070477047FFF7DEBA244810B5016821F0CB
:100E8000070141F00201016000682148016821F07A
:100E9000F80141F080010160016841F00101016049
:100EA0000168C1F340010029FAD0416821F47C11A6
:100EB00041F450114160016841F0807101600168A6
:100EC000C1F340610029FAD0416821F0F00141608E
:100ED000416821F4E06141F480614160416821F49E
:100EE00060514160416821F0030141F0020141601D
:100EF000416801F00C010829FAD10648FFF7ACFE61
:100F0000BDE810400020FFF7AFBA0000002002400B
:100F100000100240008793030D48016841F0010171
:100F2000016041680B4A1140416001680A4A114062
:100F30000160016821F480210160416821F4FE0113
:100F400041604FF41F0181600449C003086070478D
:100F5000001002400000FFF8FFFFF6FE08ED00E081
:100F600010B51548FFF736FB1448002201781448E5
:100F7000F9B141884B1C438000291BD0012919D0AD
:100F8000A1F54071E73915D1428001783B2901D2A2
:100F9000491C00E0002111F0FF020270417804D1E9
:100FA0003B2901D2491C00E0002141700548017035
:100FB0000548027010BD00006C00002008000020F1
:100FC000180000201600002009000020F0B502687B
:100FD000164B174C174D4FF08047984205D0B8423A
:100FE00003D0A04201D0A84203D122F070064A6883
:100FF0003243984205D0B84203D0A04201D0A84263
:1010000003D122F44074CA6822434C6922F0800262
:10101000224302608A68C2620A688262984201D1F1
:101020000969016301214161F0BD0000002C01400C
:10103000000400400008004010B501F01F0301212A
:10104000046A99408C430462016A9A401143016228
:1010500010BD000030B5026A22F001020262026A8D
:101060004368846924F073050C682C4322F0020560
:101070008A682A430A4DA8420BD122F00805CA68A3
:1010800023F440732A434D6922F004021D438B6907
:101090002B434360846149684163026230BD0000B4
:1010A000002C014030B5026A22F010020262026A8E
:1010B000436884690D6824F4E64444EA05248D6895
:1010C00022F0200242EA05120B4DA8420ED1CD6853
:1010D00022F0800242EA05124D6923F4406343EA9C
:1010E00085038D6922F0400243EA850343608461F1
:1010F00049688163026230BD002C014030B5026A4C
:1011000022F480720262036A4268C46923F40073A5
:1011100024F073050C682C438D6843EA05230C4DBD
:10112000A8420ED1CD6823F4006343EA05234D693C
:1011300022F4405242EA05128D6923F4806342EAA8
:1011400005124260C4614968C163036230BD00009A
:10115000002C014030B5026A22F480520262046A17
:101160004268C3690D6823F4E64343EA05238D68AA
:1011700024F4005444EA0534064DA84204D14D69D4
:1011800022F4804242EA85124260C36149680164E8
:10119000046230BD002C014010B5012000F006F8BB
:1011A000BDE810400A2000F0FBB9000010B504466D
:1011B0000648016821F008010160200900F008F8E4
:1011C00004F00F00BDE8104000F002B80C08014028
:1011D0001B4910B502070A6802D542F0020201E07D
:1011E00022F002020A6042070A6802D542F00102B8
:1011F00001E022F001020A60124C8107216802D549
:1012000041F0800101E021F080012160C0072068E9
:1012100002D040F0400001E020F040002060206853
:1012200040F020002060142000F0BAF9206820F07F
:1012300020002060BDE81040142000F0B1B900008B
:101240000C0C01400C08014070B50D4600F0070081
:10125000402141EAC000FFF7A9FF0024285D00F00B
:101260001DF8641CE4B2082CF8D370BD08B509A2BF
:1012700012680092084AD3788B4200D8002150713E
:1012800091711DF801100844C0B240F08000FFF7D2
:101290008DFF08BD004014540000002010B5044626
:1012A0000648016841F0080101602009FFF790FF3E
:1012B00004F00F00BDE81040FFF78ABF0C080140A2
:1012C0000449087840F00400087040F00800FFF777
:1012D0006DBF00000000002070B506460D462820B6
:1012E00000F05EF91B4C0020012DE5702671607145
:1012F000A071607001D9082060700320FFF768FFBB
:101300002D2000F04DF90320FFF762FF0A2000F0C6
:1013100047F90320FFF75CFF0A2000F041F90220A3
:10132000FFF756FF0A2000F03BF9607840F02000FC
:10133000FFF73CFF04202070FFF7C2FFFFF72CFFF0
:101340000220A0700620FFF731FFBDE870400A20A0
:1013500000F026B90000002070B51546FFF786FFA3
:10136000134C16E060792179884207D30020607120
:10137000A179491CC9B2A171FFF778FF28780A2822
:101380000BD00D280FD0FFF789FF6079401C6071EA
:101390006D1C28780028E5D170BDA079401CC1B231
:1013A000A171607901E0A1790020FFF75FFFEFE70D
:1013B00000000020FEE700000FB4084B10B504A9A0
:1013C00002AA039800F03CF8044602A9002000F0AD
:1013D000E1F8204610BC5DF814FB000095150008EC
:1013E0000907090E002804DB00F1E02080F8001452
:1013F000704700F00F0000F1E02080F8141D7047E6
:101400000907090E002804DB00F1E02080F8001431
:10141000704700F00F0000F1E02080F8141D7047C5
:1014200002E008C8121F08C1002AFAD170477047AD
:10143000002001E001C1121F002AFBD1704700000B
:101440002DE9FF4F89B09B460446002506E025287C
:101450000BD05A460B999047641C6D1C20780028CD
:10146000F5D10DB02846BDE8F08F0027B84601221F
:10147000474900E0074314F8013F203B02FA03F01C
:101480000842F7D120782E2819D114F8010F47F01F
:1014900004072A280ED06FF02F022078A0F1300127
:1014A00009290CD808EB880102EB410100EB010887
:1014B000641CF2E70A98641C50F8048B0A902078A8
:1014C0000028CED0642808D0692806D075281ED000
:1014D0005A460B9990476D1C58E00A994FF00A093B
:1014E00001C90A91002802DA40422D2102E03905A3
:1014F00004D52B218DF82010012103E0F90704D039
:101500002021F7E78A4608AE0DE00021FAE70A99A4
:101510004FF00A0901C90A91F7E74946FEF714FEA0
:10152000303106F8011D0028F7D1ADEB060000F1BF
:101530002009780701D44FF00108C84502DDA8EB67
:10154000090000E000208046002706E008A85A466F
:10155000C05D0B9990476D1C7F1C5745F6DB04E07E
:1015600030205A460B9990476D1CB8F10001A8F144
:101570000108F5DC05E016F8010B5A460B99904777
:101580006D1CB9F10001A9F10109F4DC641C65E7E7
:10159000092801000A68531C0B6010707047000096
:1015A000074B10B55A6807494FF47A740968B1FBC4
:1015B000F4F141435868801A8842FBD310BD000003
:1015C000001000E0280000201CB54F484F490026BD
:1015D0000068B0FBF1F0401EB0F1807F09D24FF0FF
:1015E000E02460610F216017FFF7FAFEA661072073
:1015F0002061FEF727FFFFF73FFCFFF733FBFFF704
:10160000D9FBFFF705FCFEF7C9FD41A1D1E90001B7
:10161000CDE9000104211420FFF75EFE6946002099
:10162000FFF712FE00213CA20846FFF795FE3DA2FF
:1016300001210020FFF790FE3BA202210020FFF7CE
:101640008BFE3BA202210A20FFF786FE39A203216E
:101650000020FFF781FE3AA203210A20FFF77CFE5B
:1016600000213948FFF716F981208507286040F2EC
:10167000DC50E863286A20F480702862334C3348D9
:1016800033A16288001DFFF797FE2DA203210A20D7
:10169000FFF762FE2D4A0121121D0A20FFF75CFEB2
:1016A00023A202210A20FFF757FE28E029A20321E6
:1016B0000A20FFF751FE2548627825A10930FFF77F
:1016C0007BFE224A022109320A20FFF745FE60888C
:1016D0006178401A002812DC286A20F480702862A1
:1016E00017A203210A20FFF737FE11A202210A20C8
:1016F000FFF732FE26701420FFF752FF6670207845
:101700000028BCD0D2E700002800002000A24A0434
:101710001F1111111111111F55562054494D4552D9
:101720000000000053455400434F554E5400000044
:10173000303030005354415455533A2000000000DB
:1017400053544F50000000006C000020080000209F
:1017500025750000574F524B000000007C17000811
:10176000000000202C00000020140008A81700082A
:101770002C00002084040000301400080000000049
:101780000000000000000A0000000000000000004F
:101790000000000000000000010000001000000038
:0817A000000000000024F40029
:04000005080000ED02
:00000001FF
