:020000040800F2
:100000007004002001010008FB0C0008F308000840
:10001000F90C0008990100085D12000800000000BA
:10002000000000000000000000000000310D00088A
:10003000C1010008000000002F0D0008330D00086A
:100040001B0100081B0100081B0100081B01000820
:100050001B0100081B010008C5010008450200083B
:100060001B0100081B0100081B0100081B01000800
:100070001B0100081B0100081B0100081B010008F0
:100080001B0100081B0100081B0100081B010008E0
:100090001B0100081B0100081B0100081B010008D0
:1000A0001B0100081B0100081B0100081B010008C0
:1000B000150E00081B0100081B0100081B010008A9
:1000C0001B0100081B0100081B0100081B010008A0
:1000D0001B0100081B0100081B0100081B01000890
:1000E000090200081B0100081B010008DFF80CD002
:1000F00000F040F800480047891400087004002010
:100100000648804706480047FEE7FEE7FEE7FEE7B1
:10011000FEE7FEE7FEE7FEE7FEE7FEE7CD0D00089F
:10012000ED000008D2B201E000F8012B491EFBD21D
:1001300070470022F6E710B513460A4604461946F2
:10014000FFF7F0FF204610BD30B50B4601460020FA
:100150002022012409E021FA02F59D4205D303FA89
:1001600002F5491B04FA02F52844151EA2F101020A
:10017000F1DC30BD064C074D06E0E06840F00103BD
:1001800094E8070098471034AC42F6D3FFF7B2FF6B
:10019000BC150008DC150008FEE7000006480168F1
:1001A00041F080710160054800214160016841F023
:1001B0000101016070470000FCED00E0001000E06C
:1001C0007047000010B5012000F0F0FB002811D0AE
:1001D000094901200860322001F042F9074800680F
:1001E000C00707D106480078002803D105490878E0
:1001F000401C087010BD000014040140080C0140B0
:10020000010000200000002010B54FF400642046DB
:1002100000F0CCFB00280ED007480460142001F049
:100220001FF906480068000505D405480178002933
:1002300001D10121017010BD14040140080C0140DE
:100240000100002010B5022000F0B0FB002811D002
:10025000094902200860322001F002F907480068CD
:10026000800707D406480078002803D1054908789C
:10027000401E087010BD000014040140080C01402D
:1002800001000020000000202DE9F84FDFF8B891B0
:10029000002409F1040A0AF1040B23460F270BF18D
:1002A000040EC9E00125A5402A40AA427DD1674E2F
:1002B000D1F804C0ACEB0608B44532D014DCBCF174
:1002C000030F3AD009DCBCF1000F2AD0BCF1010FBA
:1002D0001CD0BCF1020F31D11DE0BCF1110F17D0C1
:1002E000BCF1120F2AD119E0B8F5881F19D006DC2D
:1002F000B8F5803F15D0B8F5801F1FD111E0B8F5D3
:10030000001F0ED0B8F5041F18D10AE0CB6815E025
:10031000CB681B1D12E0CB6808330FE0CB680C33B1
:100320000CE08B682BB1012B4FF0080303D0456123
:1003300004E0042302E0056100E00023FF2A01D865
:10034000064601E000F104064FEA840501D9A5F153
:100350002005D6F8008007FA05FC28EA0C0803FA05
:1003600005F548EA0508C6F800804D68ED0062D53D
:10037000374DAE6946F00106AE61AD6924F0030663
:1003800005F001050095334D06EB050CDCF808502F
:10039000A607360F07FA06F825EA0805DFF8B88041
:1003A000404503D14FF0000817E044E0DFF8AC808F
:1003B000404502D14FF001080FE0DFF8A48040452E
:1003C00002D14FF0020808E0DFF89880404502D1E2
:1003D0004FF0030801E04FF0040808FA06F848EA75
:1003E0000508CCF808804D68D9F80060ED034D464B
:1003F00001D5164300E096432E604D68DAF80060A0
:10040000AD03554601D5164300E096432E604D6876
:10041000DBF80060ED025D4601D5164300E096432F
:100420002E604D68DEF80060AD02754601D51643BA
:1004300000E096432E60641C0D682A46E5407FF478
:1004400031AFBDE8F88F000000040140000011103A
:10045000001002400000014000080140000C014073
:1004600000100140001401400248816802781144E4
:10047000816070471C000020074810B5016841F0FA
:1004800010010160032000F075F8002000F006F86C
:1004900000F024F8002010BD0020024070B50D4D82
:1004A00004464FF47A712878B1FBF0F00A490968E4
:1004B000B1FBF0F000F070F848B9102C07D2002220
:1004C0002146501E00F036F800206C6070BD0120FF
:1004D00070BD00001C000020280000200C4808B55A
:1004E000816941F001018161816901F0010100919F
:1004F000C16941F08051C161C06900F08050009035
:100500000448416821F0E06141F00071416008BD9C
:100510000010024000000140002809DB00F01F022B
:10052000012191404009800000F1E020C0F8001155
:1005300070470000F0B40E4B1B680C46C3F3022357
:10054000C3F10705042D00D90425191D072901D27F
:10055000002300E0DB1E012606FA05F1491E2140BA
:1005600099409E40761E16403143F0BC00F0A9BE73
:100570000CED00E0064900F0070208684FF6FF03A3
:10058000184040EA0220034A104308607047000008
:100590000CED00E00000FA0510B5401EB0F1807FC0
:1005A00001D3012010BD4FF0E02460610F216017DE
:1005B00000F087FE0020A06107202061002010BD10
:1005C0007047704770B590F83C20012A19D001247B
:1005D00000F83C4F0222427050F83C3C5A689D683B
:1005E00022F070060A684968324325F080052943E5
:1005F0005A6050F83C2C916044700021017008460C
:1006000070BD022070BD704770B504460068016976
:100610004FF00005C943890715D4C168C94389074C
:1006200011D4E91E016101202077206880698007CC
:10063000204602D0FFF7E7FF04E000F0E8F820468C
:1006400000F054F9257720680169C943490717D498
:10065000C168C943490713D46FF004010161022046
:1006600020772068806910F4407F204602D0FFF791
:10067000CAFF04E000F0CBF8204600F037F92577F8
:1006800020680169C943090716D4C168C94309072D
:1006900012D46FF008010161042020772068C0693E
:1006A0008007204602D0FFF7AEFF04E000F0AFF86D
:1006B000204600F01BF9257720680169C943C90667
:1006C00017D4C168C943C90613D46FF01001016182
:1006D000082020772068C06910F4407F204602D0AF
:1006E000FFF791FF04E000F092F8204600F0FEF8DA
:1006F000257720680169C943C90708D1C168C94382
:10070000C90704D1891E0161204600F0F0F8206875
:100710000169C943090609D4C168C943090605D45A
:100720006FF0800101612046FFF74AFF20680169F0
:10073000C943490609D4C168C943490605D46FF0C5
:1007400040010161204600F0D3F820680169C943E7
:1007500089060BD4C168C943890607D46FF020010C
:1007600001612046BDE87040FFF72BBF70BD00005F
:1007700000B585B0002100910191029103910068BC
:10078000B0F1804F11D10A48816941F004018161C3
:100790008069694600F00400049001200090022066
:1007A000019003900348FFF76FFD05B000BD000006
:1007B000001002400008014070B5044690F83C006B
:1007C00001280DD0012584F83C50022084F83D001A
:1007D00042B1042A0AD0082A0CD00C2A11D10DE00B
:1007E000022070BD206800F08DFB0AE0206800F058
:1007F000B1FB06E0206800F0D9FB02E0206800F0C1
:1008000001FC84F83D50002084F83C0070BD704726
:1008100010B5040003D094F83D0010B107E00120AA
:1008200010BD002084F83C00204600F00DF80220A6
:1008300084F83D00211D206800F020FB012084F891
:100840003D00002010BD000008B50068B0F1804FE9
:1008500012D10A48C16941F00101C161C069002299
:1008600000F00100009011461C20FFF763FEBDE878
:1008700008401C20FFF750BE08BD000000100240D9
:1008800010B50268044631B1042908D0082922D0E5
:100890000C2908D123E0D06840F0020002E0D068C3
:1008A00040F00400D0600122206800F01DFB0E49DA
:1008B0002068884203D1416C41F4004141642068C2
:1008C000816801F00701062903D0016841F00101A8
:1008D0000160002010BDD06840F00800E2E7D06859
:1008E00040F01000DEE70000002C01407047704728
:1008F0007047FEE7044908B58A6902438A6189693D
:100900000140009108BD00000010024030B5264AA9
:10091000002405790168131F85B371B345798DB142
:10092000012D17D0022D18D0012483792BB31E4935
:1009300008310A1F012B18D0022B20D0032B22D004
:10094000012428E015688D43156001681A680A4380
:100950001A60EAE71D688D4301E01D680D431D60C4
:10096000016813680B431360DFE703680D689D435C
:100970000D6000681168014311600CE00DE0036830
:1009800015689D4302E0036815681D431560006803
:100990000A6802430A60204630BD1D688D431D6011
:1009A000006811688143E7E70404014003490968CE
:1009B000884301D000207047012070471404014093
:1009C0000A06930D064A1A44936823EA1143090C58
:1009D00091FAA1F1B1FA81F1884003439360704725
:1009E00000000140F0B50A68C2F30F2595FAA5F2A0
:1009F000B2FA82F369E001229A402A4264D0082BBD
:100A000003D240F201129A4006E0A3F108024FF02F
:100A10000114944044F0806292FAA2F700EB126451
:100A2000B7FA87F74FEA870C0F27266807FA0CF703
:100A3000BE4392FAA2F7D1F804E0B7FA87F7BF00F5
:100A40000EFA07FE46EA0E0626600E69C7684FEAF0
:100A5000122C9CFAACFCBCFA8CFC27EA122706FA92
:100A60000CF63743C7604E68012E01D0092E2BD1FA
:100A700092FAA2F7B7FA87F74FEA870C032707FA2B
:100A80000CF72668D1F808E0BE4392FAA2F7B7FA4D
:100A900087F7BF000EFA07FE92FAA2FC46EA0E069E
:100AA000BCFA8CFC4FEA8C0E4FF0040C26600CFA5A
:100AB0000EFC92FAA2F2B2FA82F2CF68920026EA13
:100AC0000C0697403E4326605B1C35FA03F292D138
:100AD0000020F0BD30B591FAA1F400EB1160B4FA3A
:100AE00084F4A5000F24AC4091FAA1F10368B1FA97
:100AF00081F18900A3438A401343036030BDC3687A
:100B000023EA1123090A91FAA1F1B1FA81F18A408D
:100B10001343C3607047000001490860704700003C
:100B2000280000202DE9F04F87B000250095142102
:100B300002A80195FFF7FDFA2020FFF7DBFE042055
:100B4000FFF7D8FE0820FFF7D5FE4E4F4FF4407058
:100B50007861DFF834814FF47E71C8F814104FF4D7
:100B600070210120FFF72CFF4FF470010120FFF7E7
:100B700027FF46490120FFF723FF01248DF8044099
:100B80008DF80550022600948DF806606846FFF740
:100B9000BDFE8DF804408DF8055000968DF8066076
:100BA0006846FFF7B3FEE0028DF8044000908DF830
:100BB00005508DF806606846FFF7A8FE40F201195F
:100BC000012249464046FFF79AFF40F2022A0122DD
:100BD00051464046FFF793FFDFF8B4B00122594673
:100BE0004046FFF78CFF082249464046FFF772FF58
:100BF000082251464046FFF76DFF082259464046FD
:100C0000FFF768FF234802A9059581E8510038469F
:100C1000FFF7E8FE2048CDE9020402A94046CDE9ED
:100C20000445FFF7DFFE1D4C20680022C0F30220C0
:100C3000114600F063F80146062000F032FB062062
:100C400000F022FB20680022C0F30220114600F0D1
:100C500055F80146072000F024FB072000F014FBA4
:100C600020680022C0F30220114600F047F8014638
:100C7000282000F016FB282000F006FB07B0BDE896
:100C8000F08F000000080140000C0140020000F05D
:100C90000800080403000304FBF803040CED00E063
:100CA00010B58AB0002407941C2168460894FFF709
:100CB00040FA10484FF08041C0E900144FF6FE7131
:100CC000C0E9024104618461FFF7A2FD079407A90E
:100CD00008480894FFF776FC0094019402940022DF
:100CE000694604480494FFF767FD0248FFF740FD9A
:100CF0000AB010BD2C000020FEE7704730B500F0B0
:100D00000703C3F10704042C00D90424181D072885
:100D100001D2002300E0DB1E012505FA04F0401E8D
:100D2000084098409D406D1E1540284330BD7047D7
:100D30007047FFF799BB0000214810B5016821F00A
:100D4000070141F00201016000681E48016841F49A
:100D5000803101600168C1F340410029FAD0416847
:100D600021F47C1141F4E8114160016841F0807187
:100D700001600168C1F340610029FAD0416821F0A7
:100D8000F0014160416821F4E06141F4806141601B
:100D9000416821F460514160416821F0030141F054
:100DA00002014160416801F00C010829FAD10648AE
:100DB000FFF7B2FEBDE810400020FFF76FBB000058
:100DC000002002400010024000A24A040D480168C1
:100DD00041F00101016041680B4A11404160016826
:100DE0000A4A11400160016821F4802101604168D4
:100DF00021F4FE0141604FF41F0181600449C003EA
:100E000008607047001002400000FFF8FFFFF6FE88
:100E100008ED00E01448002201781448F9B1418837
:100E20004B1C4380E1B101291AD0A1F54071E7398B
:100E300016D1428001783B2901D2491C00E00021F3
:100E400011F0FF0209490270497804D13B2901D20F
:100E5000491C00E0002141700548017005480270FE
:100E60000548FFF7D1BB0000010000200E00002064
:100E70000D000020020000202C000020F0B50268C8
:100E8000164B174C174D4FF08047984205D0B8428B
:100E900003D0A04201D0A84203D122F070064A68D4
:100EA0003243984205D0B84203D0A04201D0A842B4
:100EB00003D122F44074CA6822434C6922F08002B4
:100EC000224302608A68C2620A688262984201D143
:100ED0000969016301214161F0BD0000002C01405E
:100EE000000400400008004010B501F01F0301217C
:100EF000046A99408C430462016A9A40114301627A
:100F000010BD000030B5026A22F001020262026ADE
:100F10004368846924F073050C682C4322F00205B1
:100F20008A682A430A4DA8420BD122F00805CA68F4
:100F300023F440732A434D6922F004021D438B6958
:100F40002B434360846149684163026230BD000005
:100F5000002C014030B5026A22F010020262026ADF
:100F6000436884690D6824F4E64444EA05248D68E6
:100F700022F0200242EA05120B4DA8420ED1CD68A4
:100F800022F0800242EA05124D6923F4406343EAED
:100F900085038D6922F0400243EA85034360846142
:100FA00049688163026230BD002C014030B5026A9D
:100FB00022F480720262036A4268C46923F40073F7
:100FC00024F073050C682C438D6843EA05230C4D0F
:100FD000A8420ED1CD6823F4006343EA05234D698E
:100FE00022F4405242EA05128D6923F4806342EAFA
:100FF00005124260C4614968C163036230BD0000EC
:10100000002C014030B5026A22F480520262046A68
:101010004268C3690D6823F4E64343EA05238D68FB
:1010200024F4005444EA0534064DA84204D14D6925
:1010300022F4804242EA85124260C3614968016439
:10104000046230BD002C014010B5012000F006F80C
:10105000BDE810401E2000F003BA000010B50446A1
:101060000648016821F008010160200900F008F835
:1010700004F00F00BDE8104000F002B80C0C014075
:1010800010B51A4C0107216802D541F4807101E0C6
:1010900021F4807121604107216802D541F080016F
:1010A00001E021F0800121608107216802D541F033
:1010B000400101E021F040012160C007206802D01A
:1010C00040F0200001E020F020002060206840F087
:1010D00010002060142000F0C3F9206820F01000F8
:1010E0002060BDE81040142000F0BAB90C0C01409B
:1010F00070B50D4600F00700402141EAC000FFF73F
:10110000ADFF0024285D00F01DF8641CE4B2082C3B
:10111000F8D370BD08B509A212680092084AD378C6
:101120008B4200D80021507191711DF801100844C4
:10113000C0B240F08000FFF791FF08BD004014549A
:101140001200002010B504460648016841F008016D
:1011500001602009FFF794FF04F00F00BDE8104084
:10116000FFF78EBF0C0C01400449087840F00400E2
:10117000087040F00800FFF771BF00001200002067
:1011800070B506460D46282000F06AF91B4C002079
:10119000012DE57026716071A071607001D9082081
:1011A00060700320FFF76CFF2D2000F059F9032039
:1011B000FFF766FF2D2000F053F90320FFF760FFD3
:1011C0002D2000F04DF90220FFF75AFF0A2000F011
:1011D00047F9607840F02000FFF740FF04202070BE
:1011E000FFF7C2FFFFF730FF0220A0700620FFF7D5
:1011F00035FFBDE870402D2000F032B9120000200C
:1012000070B51546FFF786FF134C16E0607921791B
:10121000884207D300206071A179491CC9B2A1712D
:10122000FFF778FF28780A280BD00D280FD0FFF79A
:1012300089FF6079401C60716D1C28780028E5D119
:1012400070BDA079401CC1B2A171607901E0A179A3
:101250000020FFF75FFFEFE712000020FEE700002D
:101260000FB4084B10B504A902AA039800F048F87F
:10127000044602A9002000F0EDF8204610BC5DF8FD
:1012800014FB000055140008002809DB00F01F02C1
:10129000012191404009800000F1E020C0F80011D8
:1012A00070470907090E002804DB00F1E02080F8F0
:1012B0000014704700F00F0000F1E02080F8141DCA
:1012C00070470907090E002804DB00F1E02080F8D0
:1012D0000014704700F00F0000F1E02080F8141DAA
:1012E000704702E008C8121F08C1002AFAD17047EF
:1012F0007047002001E001C1121F002AFBD1704796
:101300002DE9FF4F89B09B460446002506E02528BD
:101310000BD05A460B999047641C6D1C207800280E
:10132000F5D10DB02846BDE8F08F0027B846012260
:10133000474900E0074314F8013F203B02FA03F05D
:101340000842F7D120782E2819D114F8010F47F060
:1013500004072A280ED06FF02F022078A0F1300168
:1013600009290CD808EB880102EB410100EB0108C8
:10137000641CF2E70A98641C50F8048B0A902078E9
:101380000028CED0642808D0692806D075281ED041
:101390005A460B9990476D1C58E00A994FF00A097C
:1013A00001C90A91002802DA40422D2102E03905E4
:1013B00004D52B218DF82010012103E0F90704D07A
:1013C0002021F7E78A4608AE0DE00021FAE70A99E6
:1013D0004FF00A0901C90A91F7E74946FEF7B4FE42
:1013E000303106F8011D0028F7D1ADEB060000F101
:1013F0002009780701D44FF00108C84502DDA8EBA9
:10140000090000E000208046002706E008A85A46B0
:10141000C05D0B9990476D1C7F1C5745F6DB04E0BF
:1014200030205A460B9990476D1CB8F10001A8F185
:101430000108F5DC05E016F8010B5A460B999047B8
:101440006D1CB9F10001A9F10109F4DC641C65E728
:10145000092801000A68531C0B60107070470000D7
:10146000074B10B55A6807494FF47A740968B1FB05
:10147000F4F141435868801A8842FBD310BD000044
:10148000001000E0280000201CB53D483D49002622
:101490000068B0FBF1F0401EB0F1807F09D24FF040
:1014A000E02460610F216017FFF7FBFEA6610720B3
:1014B0002061FEF7E1FFFFF73FFCFFF733FBFFF78B
:1014C000EFFBFEF76BFE30A1D1E90001CDE9000191
:1014D00004211420FFF754FE69460020FFF708FEA0
:1014E00000212BA20846FFF78BFE2CA20121002031
:1014F000FFF786FE2AA202210020FFF781FE2AA222
:1015000002210A20FFF77CFE00212848FFF7B8F9E6
:10151000274C284D274A28A1D21C2878FFF7A0FE87
:10152000244A0121D21C0A20FFF76AFE24E0206829
:1015300040F480702060206840F4007020601D4AF4
:10154000022108320A20FFF75BFE2878A978401AAA
:10155000002811DC206820F480702060206820F4CE
:101560000070206010A202210A20FFF749FE6E7071
:101570001420FFF775FFAE7068780028CAD0D6E750
:101580002800002000A24A041F1111111111111F7F
:1015900055562054494D4552000000005345540013
:1015A000434F554E54000000303030002C000020D6
:1015B0000C0801400000002025640000DC15000834
:1015C000000000202C000000E212000808160008AD
:1015D0002C00002044040000F21200081E0000004D
:1015E00000000000000000000000000000000000FB
:1015F00000000000000000000100000010000000DA
:08160000000000000024F400CA
:04000005080000ED02
:00000001FF
